:020000040800F2
:10000000D81C002095260008AB060008C106000891
:1000100000000000000000000000000000000000E0
:10002000000000000000000000000000C7060008FB
:100030000000000000000000CD060008D306000804
:10004000E5260008E5260008E5260008E526000864
:10005000E5260008E5260008E5260008E526000854
:1000600000000000E5260008E5260008E526000857
:10007000E5260008E5260008E52600080000000047
:10008000E5260008E526000800000000E526000837
:10009000E5260008E5260008E5260008E526000814
:1000A000E5260008E5260008E5260008E307000825
:1000B000E52600080000000000000000000000002D
:0C00C000E526000800000000E52600080E
:1000CC0003B47146490840004900095E49008E445A
:1000DC0003BC704710B540F23C24C2F200042378F4
:1000EC0063B940F20003C0F200032BB145F2A070DB
:1000FC00C0F6000000E000BF0123237010BDC04615
:10010C0040F20003C0F2000310B54BB140F24021A5
:10011C0045F2A070C2F20001C0F6000000E000BF82
:10012C0010BDC04690B583B000AF02003960FB1D16
:10013C001A70FB1D1B787F2B2FD84EF20013CEF2BA
:10014C000003FA1D127852B29208C0329200D358B2
:10015C00FA1D1278110003220A40D200FF219140AF
:10016C000A00D2431A4010003B689B01FF221A4040
:10017C00FB1D1B78190003230B40DB009A40110078
:10018C004EF20013CEF20003FA1D127852B292080E
:10019C000143C0329200D15037E04EF60053CEF2FC
:1001AC000003FA1D127811000F220A40083A920837
:1001BC00063292009B1804331B68FA1D127811004A
:1001CC0003220A40D200FF2191400A00D2431A4078
:1001DC0010003B689B01FF221A40FB1D1B78190085
:1001EC0003230B40DB009A404EF60053CEF2000383
:1001FC00F91D09780C000F212140083989080243A8
:10020C00063189005B1804331A60C046BD4603B042
:10021C0090BD80B582B000AF78607B685A1E802399
:10022C005B049A4201D3012319E04EF21003CEF283
:10023C0000037A68013A5A6001235B4203211800DB
:10024C00FFF770FF4EF21003CEF2000300229A600B
:10025C004EF21003CEF2000307221A60002318009E
:10026C00BD4602B080BD80B500AF40F2D013C2F2E3
:10027C0000031B6840F2E832B3FBF2F31800FFF7FF
:10028C00C8FF030003B1FEE701235B420021180005
:10029C00FFF748FFC046BD4680BD80B582B000AFB9
:1002AC00786040F25823C2F200037A681A60C046A4
:1002BC0040F25823C2F200031B68002BF8D1C04651
:1002CC00C046BD4602B080BD80B500AF40F2582399
:1002DC00C2F200031B6853B140F25823C2F2000370
:1002EC001B685A1E40F25823C2F200031A60C04623
:1002FC00BD4680BD80B582B000AF00237B6000237B
:10030C003B60FFF7B0FF01F07AFFE1235B021800BE
:10031C0000F07FFC01F0E9FFE1231B03180000F063
:10032C00CCFC41F29C03C2F200031B68853B5A4291
:10033C005341DBB21A0045F2B873C0F6000311004A
:10034C00180004F0EBF945F2E472C0F6000245F235
:10035C00F071C0F6000145F2FC73C0F60003180002
:10036C0004F0DCF9042000F0A2FB00211B2003F0B8
:10037C0044F900211C2003F040F900F005FC01F0C9
:10038C00E7FF43F61C03C4F201031A6845F6180391
:10039C00C0F600031100180004F0C0F943F6000386
:1003AC00C4F201030521180002F074FB43F60003AC
:1003BC00C4F201030421180002F06CFB43F60003A5
:1003CC00C4F2010340F20021180002F063FB43F673
:1003DC000003C4F201030E21180002F05BFB43F68C
:1003EC000003C4F201030821180002F053FB43F68A
:1003FC000003C4F20103180002F004FB41F2707018
:10040C0000F00AFD40F25C23C2F200031B686BB9DA
:10041C0002F031F803004BB101F03EFB02F0A5F8FD
:10042C0040F25C23C2F2000301221A6003F0EEFDDD
:10043C0041F29C03C2F200031B68822B3ED145F6AD
:10044C002803C0F60003180004F000FA43F600037A
:10045C00C4F201037E21180000F0B6FC0120FFF766
:10046C001CFF43F60003C4F201037E21180000F0C8
:10047C00ABFC0120FFF711FF43F60003C4F20103AC
:10048C007E21180000F0A0FC0120FFF706FF43F6C8
:10049C000003C4F201037E21180000F095FC01203A
:1004AC00FFF7FBFE43F60003C4F201037E211800A4
:1004BC0000F08AFC0120FFF7F0FEA3E741F29C0359
:1004CC00C2F200031B68832B00D08EE041F29C0328
:1004DC00C2F200035B691B78552B6CD141F29C0373
:1004EC00C2F20003D96841F29C03C2F200031A69FC
:1004FC0045F63803C0F60003180004F00FF941F27A
:10050C009C03C2F20003586941F29C03C2F200033F
:10051C00DB681A00002100F06DFD41F29C03C2F271
:10052C0000030022DA6041F29C03C2F200030022B5
:10053C001A6141F29C03C2F2000300221A7143F6C5
:10054C000003C4F201030521180002F0A3FA43F6DC
:10055C000003C4F201030421180002F09BFA43F6D5
:10056C000003C4F201037E21180000F02DFC0120D1
:10057C00FFF793FE43F60003C4F201037E2118003B
:10058C0000F022FC0120FFF788FE43F60003C4F2C2
:10059C0001037E21180000F017FC0120FFF77DFEFF
:1005AC0041F29C03C2F2000384221A604EF66020D2
:1005BC0000F032FC26E740F66C43C2F200035B68A5
:1005CC003B607B683BB13A687B68D31A40F2E732F8
:1005DC00934200D816E745F68C03C0F600031800CA
:1005EC0004F034F93B687B600CE741F29C03C2F2E7
:1005FC0000031B68852B12D145F6AC03C0F6000333
:10060C00180004F023F903F08FFA002002F011FD1A
:10061C0040F25C23C2F2000300221A6071E641F240
:10062C009C03C2F200031B68862B00D0EAE645F659
:10063C00C003C0F60003180004F008F901F075FFC0
:10064C00E1235B02180000F08CFB01F049FF00F085
:10065C009BFA41F6407000F0DFFBD3E680B582B028
:10066C0000AF78607B68DBB21A0044F20043C4F23E
:10067C0000031100180002F075F9C04644F2004363
:10068C00C4F2000340F20771180002F0CCF9030029
:10069C00002BF3D07B681800BD4602B080BD80B53E
:1006AC0000AF40F2001002F095FA0300012B00D1CC
:1006BC00FEE7FEE780B500AFFEE780B500AFFEE7D2
:1006CC0080B500AFFEE780B500AFFFF7FDFD40F64B
:1006DC006C43C2F200035B685A1C40F66C43C2F2D6
:1006EC0000035A6001F056FE40F66C43C2F2000360
:1006FC001B78002B6CD040F66C43C2F200035A6896
:10070C0040F66C43C2F200039B689A4260DB41F2F4
:10071C009C03C2F200031B68832B07D145F6E4034C
:10072C00C0F60003180004F091F84BE045F61813DE
:10073C00C0F60003180004F089F841F29C03C2F2E1
:10074C0000031A6845F62C13C0F6000311001800BC
:10075C0003F0E4FF41F29C03C2F200031B791A0080
:10076C0045F65013C0F600031100180003F0D6FF35
:10077C0041F29C03C2F200031A6945F67413C0F6E9
:10078C0000031100180003F0C9FF45F69813C0F6DA
:10079C000003180004F05AF841F29C03C2F2000363
:1007AC00DA6941F29C03C2F200031B6919001000C4
:1007BC0000F055FB41F29C03C2F2000386221A6042
:1007CC0001F0BFFE40F66C43C2F2000300221A7027
:1007DC00C046BD4680BD90B583B000AFBB1D0022A6
:1007EC001A800522C0F2057243F60003C4F201031D
:1007FC001100180002F094F903005BB3BC1D43F622
:10080C000003C4F20103180002F0BBF803002380BC
:10081C000522C0F2057243F60003C4F20103110075
:10082C00180002F0AFF941F29C03C2F20003D9693F
:10083C0041F29C03C2F200031A69501C41F29C0362
:10084C00C2F2000318611300CB18BA1D1288D2B281
:10085C001A7028E10422C0F2047243F60003C4F2B9
:10086C0001031100180002F05BF903004BB30422E2
:10087C00C0F2047243F60003C4F201031100180025
:10088C0002F080F941F29C03C2F200031B79032BA6
:10089C0000D008E141F29C03C2F2000384221A60EA
:1008AC0043F60003C4F201030421180002F014F90A
:1008BC0043F60003C4F201030521180002F00CF901
:1008CC00F1E040F21622C0F2147243F60003C4F2B7
:1008DC0001031100180002F023F90300DBB140F210
:1008EC001622C0F2147243F60003C4F20103110085
:1008FC00180002F047F943F60003C4F2010340F27A
:10090C001471180002F0AEF841F29C03C2F200031D
:10091C0085221A60C7E00E22C0F2117243F6000362
:10092C00C4F201031100180002F0FAF803005BB1E5
:10093C000E22C0F2117243F60003C4F2010311003F
:10094C00180002F01FF9AEE00822C0F2007243F664
:10095C000003C4F201031100180002F0E1F80300D7
:10096C005BB10822C0F2007243F60003C4F201032B
:10097C001100180002F006F995E00522C0F203728E
:10098C0043F60003C4F201031100180002F0C8F88A
:10099C0003005BB10522C0F2037243F60003C4F2FC
:1009AC0001031100180002F0EDF87CE040F2002287
:1009BC00C0F2027243F60003C4F2010311001800E6
:1009CC0002F0AEF8030063B140F20022C0F20272F2
:1009DC0043F60003C4F201031100180002F0D2F830
:1009EC0061E040F20022C0F2037243F60003C4F24D
:1009FC0001031100180002F093F80300F3B140F268
:100A0C000022C0F2037243F60003C4F2010311008A
:100A1C00180002F0B7F843F60003C4F20103180003
:100A2C0001F0AFFF0522C0F2057243F60003C4F2D9
:100A3C0001031100180002F0A5F834E040F2002286
:100A4C00C0F2017243F60003C4F201031100180056
:100A5C0002F066F8030063B140F20022C0F20172AA
:100A6C0043F60003C4F201031100180002F08AF8E7
:100A7C0019E043F20942C3F20F4243F60003C4F2F9
:100A8C0001031100180002F04BF803005BB143F2B4
:100A9C000942C3F20F4243F60003C4F201031100F2
:100AAC00180002F06FF8C046BD4603B090BD80B58B
:100ABC0082B000AF0200FB1D1A70FB1D1A7845F6C0
:100ACC004033C0F600035200D35A180002F040FA2B
:100ADC00FB1D1A7845F61833C0F600039200D05867
:100AEC00FB1D1A7845F62C33C0F600039200D35840
:100AFC000022012102F0C7FDFB1D1A7845F61833C0
:100B0C00C0F600039200D058FB1D1A7845F62C3322
:100B1C00C0F600039200D3580322002102F00BFE12
:100B2C00FB1D1978FB1D1A7845F61833C0F6000327
:100B3C009200D35828331A0045F62C33C0F6000324
:100B4C008900CB581360C046BD4602B080BD80B54D
:100B5C0082B000AF0200FB1D1A70FB1D1978FB1D43
:100B6C001A7845F61833C0F600039200D358283390
:100B7C001A0045F62C33C0F600038900CB581360DD
:100B8C00C046BD4602B080BD80B500AF41F29C03AB
:100B9C00C2F2000300221A7141F29C03C2F200035C
:100BAC0083221A6041F29C03C2F200030022DA6035
:100BBC0041F29C03C2F2000300221A6141F29C0331
:100BCC00C2F2000340F67C32C2F200025A6141F2DA
:100BDC009C03C2F2000340F27C32C2F200029A6122
:100BEC0041F29C03C2F2000340F28C22C2F20002DA
:100BFC00DA6141F29C03C2F2000301225242DA8014
:100C0C0041F29C03C2F2000300229A60C046BD462A
:100C1C0080BD80B582B000AF786040F20E6002F00B
:100C2C0097F943F60003C4F20103180001F055FDD7
:100C3C0043F60003C4F201030021180001F0FCFD8F
:100C4C0043F60003C4F201030021180001F012FE68
:100C5C0043F60003C4F201030021180001F0CEFD9D
:100C6C0043F60003C4F2010348F20001180001F03E
:100C7C005BFE7A6843F60003C4F20103110018000E
:100C8C0001F054FD43F60003C4F2010304211800E3
:100C9C0001F035FE43F60003C4F2010308211800ED
:100CAC0001F018FE43F60003C4F20103180001F032
:100CBC0003FEC046BD4602B080BD80B582B000AF19
:100CCC00786040F2117002F043F944F20043C4F230
:100CDC000003180001F001FD44F20043C4F20003CC
:100CEC000021180001F0A8FD44F20043C4F20003F7
:100CFC000021180001F0BEFD44F20043C4F20003D1
:100D0C000021180001F07AFD44F20043C4F2000304
:100D1C0048F20001180001F007FE7A6844F2004323
:100D2C00C4F200031100180001F000FD44F200436E
:100D3C00C4F200030421180001F0E1FD44F2004369
:100D4C00C4F200030821180001F0C4FD44F2004372
:100D5C00C4F20003180001F0AFFDC046BD4602B05E
:100D6C0080BD80B582B000AF78601B2002F061FCC2
:100D7C0043F60003C4F201030521180001F0ACFE98
:100D8C0043F60003C4F201030421180001F0A4FE91
:100D9C007B681800FFF73DFF00211B2002F02DFCA3
:100DAC0043F60003C4F201030521180001F072FEA2
:100DBC0043F60003C4F201030421180001F06AFE9B
:100DCC00C046BD4602B080BD80B582B000AF786031
:100DDC0039603A687B681100180001F0C3FDC04609
:100DEC007B6840F20771180001F01DFE0300002B18
:100DFC00F6D0C046C046BD4602B080BD80B500AF3F
:100E0C0040F66C43C2F200030C220021180000F0E3
:100E1C00F1F8C046BD4680BD80B582B000AF7860A9
:100E2C0040F66C43C2F200030C220021180000F0C3
:100E3C00E1F840F66C43C2F2000301221A7040F64E
:100E4C006C43C2F200035A687B68D21840F66C43BC
:100E5C00C2F200039A60C046BD4602B080BD80B5A8
:100E6C0086B000AF786039603B68002B00DA0F3336
:100E7C001B110133FB603A6845F6B813C0F600034A
:100E8C001100180003F04AFC00237B6123E00023CF
:100E9C003B611AE07B691A013B69D3183A689A42A4
:100EAC001EDD7B691A013B69D3181A007B689B18FD
:100EBC001B781A0045F6CC13C0F60003110018007D
:100ECC0003F02CFC3B6901333B613B690F2BE1DDEB
:100EDC007B6901337B617A69FB689A42D7DB00E05E
:100EEC00C0460A2003F032FCC046BD4606B080BDA9
:100EFC0080B584B000AF786039600023FB600A23B2
:100F0C00FB1800221A8032E08023FB6029E00A21C2
:100F1C007B1800229B5E002B0CDA7A187B181B883E
:100F2C00DB1813807B187A18128841F221014A4091
:100F3C001A8005E00A23FA18FB181B88DB181380AB
:100F4C007B681B781A00FB6813403BB10A22BB1864
:100F5C00BA18128841F221014A401A80FB685B08DA
:100F6C00FB60FB68002BD2D17B6801337B603B6854
:100F7C005A1E3A60002BC7D10A23FB181B88180095
:100F8C00BD4604B080BD80B584B000AF0200BB1D6F
:100F9C001A80BB1D1B881B021AB2BB1D1B881B0AA7
:100FAC009BB21BB213431AB20E217B181A807B180A
:100FBC001B881800BD4604B080BD000080B584B00D
:100FCC0000AF78607B681022D3417A685340FB6095
:100FDC00FB68074A1340FB607B680822D341BB6067
:100FEC00FB681A0ABB6853401800BD4604B080BDAC
:100FFC00FFFF00FF80B586B000AFF8607A600B236E
:10100C00FB180A1C1A70FB687B6100233B610AE029
:10101C007B690B22BA1812781A707B6901337B61D9
:10102C003B6901333B613A697B689A42F0DBFB68B0
:10103C001800BD4606B080BD80B588B000AFF86022
:10104C00B9607A60FB68FB61BB68BB6100237B61A4
:10105C000CE0BB691A78FB691A70FB690133FB6100
:10106C00BB690133BB617B6901337B617A697B6846
:10107C009A42EED3FB681800BD4608B080BD80B51F
:10108C0088B000AFF860B9607A60FB68BB61BB6880
:10109C007B610023FB610CE0BA69FB69D3181A78F9
:1010AC007969FB69CB181B789A4207D1FB6901332C
:1010BC00FB61FA697B689A42EED300E0C0467A681D
:1010CC00FB69D31A1800BD4608B080BD80B582B04C
:1010DC0000AF0200FB1D1A70FB1D1B7833B190236F
:1010EC00DB051021180002F08BFB11E0C04643F227
:1010FC000003C4F201038021180001F08CFE0300F0
:10110C00002BF4D19023DB051021180002F06BFBAF
:10111C00BD4602B080BD80B58AB000AF786043F2A6
:10112C000003C4F20103180001F010FE40F211504C
:10113C0001F00EFF40F20C6001F00AFF9023DB057A
:10114C00E0220021180002F07AFB9023D805E0235E
:10115C000022022102F097FA9023D805E023032203
:10116C00002102F0E8FA9023D80510230022012177
:10117C0002F089FA9023D80510230322002102F0F3
:10118C00DAFA0C217B1800225A607B1840F2041208
:10119C001A607B1840F200729A607B187A685A6168
:1011AC007B1840F20022DA607B1808229A617B18C7
:1011BC0000221A617A1843F20003C4F201031100F1
:1011CC00180001F019FD43F20003C4F201031800EA
:1011DC0001F0AEFD00231800BD460AB080BD80B5FD
:1011EC0082B000AF0200FB1D1A70C04643F2000330
:1011FC00C4F201030221180001F00DFE0300002BC4
:10120C00F4D0FB1D1B789AB243F20003C4F2010325
:10121C001100180001F0A8FDC04643F20003C4F20F
:10122C0001030121180001F0F6FD0300002BF4D09E
:10123C0043F20003C4F20103180001F0C4FD0300E3
:10124C00DBB21800BD4602B080BD80B500AF0120F6
:10125C00FFF73CFFFF20FFF7C2FF0020FFF736FF30
:10126C00C046BD4680BD80B500AF0120FFF72EFF04
:10127C009F20FFF7B4FFA520FFF7B1FFA520FFF7D4
:10128C00AEFF03001A0040F26423C2F200031A708E
:10129C00A520FFF7A4FF03001A0040F26423C2F25A
:1012AC0000035A70A520FFF79AFF03001A0040F2C2
:1012BC006423C2F200039A70A520FFF790FF03008D
:1012CC001A0040F26423C2F20003DA70A520FFF783
:1012DC0086FF03001A0040F26423C2F200031A7165
:1012EC000020FFF7F3FEC046BD4680BDB0B586B00A
:1012FC0002AF0023BB6000237B600E23FB1800228F
:10130C001A7097E00E23FB181B78032B10D012DCFD
:10131C00022B0AD00FDC13B1012B03D00BE00023FE
:10132C00BB6009E00223BB6006E00123BB6003E065
:10133C000323BB6000E0C046BB681800FFF7EBFE60
:10134C000300002B6FD1FFF780FFFFF78CFF40F2FB
:10135C006423C2F200031B78190040F26423C2F22A
:10136C0000035B781C0040F26423C2F200039B78FC
:10137C001D0040F26423C2F20003DB781A0040F235
:10138C006423C2F200031B7945F6D410C0F60000AA
:10139C00019300922B00220003F0C0F90F23FB18DD
:1013AC0000221A7039E00F243B191A7813009B00A5
:1013BC009B189B0040F20802C2F20002981840F2FF
:1013CC006423C2F2000302221900FFF758FE030047
:1013DC00EBB93B191A7813009B009B189B0040F249
:1013EC000802C2F200029B187B607B68DB681A0063
:1013FC0040F20003C2F200031A607B681B691A00FA
:10140C0040F20403C2F200031A607B684BE00F2128
:10141C007B181A787B1801321A700F23FB181B7873
:10142C000C2BC0D900E0C0460E217B181A787B1813
:10143C0001321A700E23FB181B78032B00D861E7BE
:10144C0040F26423C2F200031B7823B3184B7B6079
:10145C007B68DB681A0040F20003C2F200031A60DA
:10146C007B681B691A0040F20403C2F200031A6085
:10147C0040F20003C2F20003196840F20403C2F206
:10148C0000031A6845F6FC13C0F60003180003F0BD
:10149C0045F97B6807E045F64023C0F600031800C9
:1014AC0003F0D4F900231800BD4604B0B0BDC0460B
:1014BC00A800002090B585B000AF08243C1920602E
:1014CC0061607A601A00BB1C1A8040F26023C2F281
:1014DC0000031B680BB17B680BB901233FE040F2A2
:1014EC006023C2F200031B689B689B69984740F21B
:1014FC000003C2F200031B680822BA1892889A1AD9
:10150C00BB1C1B889A4201DA012328E040F26023BD
:10151C00C2F200031B689B68DA680823FB18186882
:10152C005968904740F26023C2F200031B689B6825
:10153C001B6A98470300012B01D19A230FE040F25C
:10154C006023C2F200031B689B689C68BB1C1B8851
:10155C000822BA18786811685268A047002318004E
:10156C00BD4605B090BD80B582B000AF0200FB1D3A
:10157C001A70FB1D1B7833B19023DB05102118006A
:10158C0002F03EF911E0C04643F20003C4F201033D
:10159C008021180001F03FFC0300002BF4D19023B4
:1015AC00DB051021180002F01EF9BD4602B080BD0B
:1015BC0080B582B000AF0200FB1D1A70BB1D0A1C67
:1015CC001A700120FFF7CFFF1F20FFF708FEFB1D4D
:1015DC001B781800FFF703FEBB1D1B781800FFF7E4
:1015EC00FEFD0020FFF7BFFFC046BD4602B080BD28
:1015FC00B0B584B000AF0200FB1D1A700F243B196C
:10160C0000221A700120FFF7AEFF0F20FFF7E7FD55
:10161C00FB1D1B781800FFF7E2FD25003C19A520E7
:10162C00FFF7DDFD030023700020FFF79CFF7B1903
:10163C001B781800BD4604B0B0BD90B587B000AFA4
:10164C00F860381D016042603B6000237B61012023
:10165C00FFF789FF0320FFF7C2FD3B1D9B881B0A88
:10166C009BB2DBB21800FFF7BAFD3B1D9B88DBB2C7
:10167C001800FFF7B4FDA520FFF7B1FD00237B6137
:10168C000AE0FC68631CFB60A520FFF7A8FD0300C3
:10169C0023707B6901337B617A693B689A42F0D392
:1016AC000020FFF760FFC046BD4607B090BD80B577
:1016BC0084B000AF3B00186059603B001B889B0155
:1016CC001B041A0C3B005B8819003F230B4013438F
:1016DC00FB600120FFF747FF1320FFF780FDFB683D
:1016EC001B0CDBB21800FFF77AFDFB681B0ADBB2A0
:1016FC001800FFF774FDFB68DBB21800FFF76FFDF5
:10170C000020FFF730FFC046C020FFF771FF030039
:10171C001A0001231340002BF6D1C046C046BD462B
:10172C0004B080BD80B500AF0120FFF71CFF062080
:10173C00FFF755FD0020FFF716FFC046BD4680BDE4
:10174C0090B583B000AFFB1D00221A70FC1DB020B9
:10175C00FFF74EFF03002370FB1DFA1D12781021BA
:10176C000A431A70FB1D1B781900B020FFF720FFED
:10177C00C046BD4603B090BD90B583B000AFFB1D15
:10178C0000221A70FC1DB020FFF732FF03002370FB
:10179C00FB1DFA1D127810218A431A70FB1D1B7851
:1017AC001900B020FFF704FFC046BD4603B090BD42
:1017BC0090B583B000AFFB1D00221A70FC1DB02049
:1017CC00FFF716FF03002370FB1D1B78202213402C
:1017DC0033B1FB1D1B78102213400BB9012300E021
:1017EC0000231800BD4603B090BD80B584B000AF97
:1017FC0078607B689B011B041B0CFB60FFF792FF5E
:10180C000120FFF7B0FED820FFF7E9FCFB681B0CAA
:10181C00DBB21800FFF7E3FCFB681B0ADBB2180015
:10182C00FFF7DDFCFB68DBB21800FFF7D8FC0020EB
:10183C00FFF799FEC046C020FFF7DAFE03001A003E
:10184C0001231340002BF6D1C020FFF7D1FE03007B
:10185C001800BD4604B080BD80B500AFFFF7F5FCA5
:10186C000220FEF71AFDC046BD4680BD90B587B07C
:10187C0000AF08243B19186059607A6021007B186E
:10188C0000225A800C007B1818685968FFF70FFF6C
:10189C003A1914243819042311685268FFF7CDFE45
:1018AC003B197A681000190004231A00FFF7C4FBD7
:1018BC00C046BD4607B090BD90B583B000AFFB1DD0
:1018CC0000221A70FC1DB020FFF792FE030023705B
:1018DC00FB1D1B7830221340302B01D1012300E07B
:1018EC0000231800BD4603B090BD90B583B000AF87
:1018FC00FC1DB020FFF77CFE03002370FB1DFA1DBE
:10190C00127808210A431A70FB1D1B781900B020AD
:10191C00FFF74EFEC046BD4603B090BD90B583B0F8
:10192C0000AFFC1DB020FFF763FE03002370FB1D0E
:10193C00FA1D127808218A431A70FB1D1B781900B6
:10194C00B020FFF735FEC046BD4603B090BD80B554
:10195C0000AFFFF77AFC0220FEF79FFCFFF7C5FFF4
:10196C00C046BD4680BD80B500AFFFF7D7FFC0466F
:10197C00BD4680BD90B583B000AFFB1D00221A7030
:10198C00FC1DB020FFF734FE03002370FB1D1B78F9
:10199C002022134023B1FB1D1B78102213404BB1A6
:1019AC00FB1D1B782022134033B1FB1D1B7810222A
:1019BC0013400BB1012300E000231800BD4603B017
:1019CC0090BD80B582B000AF0200FB1D1A70FB1DEC
:1019DC001B7833B19023DB051021180001F010FFA8
:1019EC0011E0C04643F20003C4F201038021180049
:1019FC0001F011FA0300002BF4D19023DB05102128
:101A0C00180001F0F0FEBD4602B080BD90B587B065
:101A1C0000AFF860381D016042603B6000237B61C1
:101A2C000120FFF7CEFF3B1D1B88012B07D13B1D6F
:101A3C009B8841F2000213439AB23B1D9A8003200B
:101A4C00FFF7CDFB3B1D9B881B0A9BB2DBB218003A
:101A5C00FFF7C5FB3B1D9B88DBB21800FFF7BFFBF4
:101A6C00A520FFF7BCFB00237B610AE0FC68631C2C
:101A7C00FB60A520FFF7B3FB030023707B690133E8
:101A8C007B617A693B689A42F0D30020FFF799FF9B
:101A9C00C046BD4607B090BD80B582B002AF45F6DA
:101AAC004C32C0F6000245F65023C0F6000311007C
:101ABC00180002F033FE00F03CF940F2CC13C2F2F5
:101ACC0000031B68009340F24013F0220021002019
:101ADC0000F01AFB45F64C32C0F6000245F65C23CA
:101AEC00C0F600031100180002F018FE00231800C5
:101AFC00BD4680BD80B582B000AF78600A00FB1C8B
:101B0C001A707B6804331A687B68043341F2000155
:101B1C000A431A60C0467B6808331B6802221340D4
:101B2C00002BF8D07B680C33FA1C12781A60C04674
:101B3C007B6808331B6801221340002BF8D07B68AC
:101B4C000C331B68DBB21800BD4602B080BD80B5FB
:101B5C0088B000AF40F2115001F0FAF940F2125087
:101B6C0001F0F6F940F20E7001F0F2F99023DB056A
:101B7C0046F200020021180001F061FE9023D80506
:101B8C0046F200030022022101F07DFD9023D805CE
:101B9C0046F200030322002101F0CDFD9023D8056D
:101BAC0048F200030022012101F06DFD9023D805BD
:101BBC0048F200030322002101F0BDFD40F2004376
:101BCC00C4F6000302220021180001F038FE40F296
:101BDC000040C4F6000002230022022101F053FD54
:101BEC0040F20040C4F6000002230322002101F061
:101BFC00A2FD40F20040C4F60000042300220121A3
:101C0C0001F041FD40F20040C4F600000423032221
:101C1C00002101F090FD3B1D00225A603B1D40F25B
:101C2C0004121A603B1D40F200729A603B1D0322A5
:101C3C005A613B1D40F20022DA603B1D00229A6182
:101C4C003B1D00221A613A1D43F60003C4F2000347
:101C5C001100180000F0D0FF43F60003C4F200039B
:101C6C00180001F065F8C046BD4608B080BD80B5CF
:101C7C0082B000AF0200FB1D1A702823C4F60003CB
:101C8C0042F200021A60FB1D1A7843F60003C4F2FC
:101C9C00000311001800FFF72DFFC046BD4602B02F
:101CAC0080BD80B582B000AF0200FB1D1A701823F6
:101CBC00C4F6000342F200021A60FB1D1A7843F6C8
:101CCC000003C4F2000311001800FFF713FFC04615
:101CDC00BD4602B080BD80B582B000AF0200FB1DD6
:101CEC001A70BB1D0A1C1A70FB1D1B781800FFF71D
:101CFC00D8FFBB1D1B781800FFF7D3FFC046BD46AD
:101D0C0002B080BD80B500AF40F22843C4F600039A
:101D1C0004221A606420FEF7C0FA40F21843C4F69D
:101D2C00000304221A603220FEF7B7FAC046BD4603
:101D3C0080BD80B500AFFFF70AFF2823C4F600036F
:101D4C0048F200021A60FFF7DDFFFE20FFF78FFF5D
:101D5C00EF20FFF78CFF8020FFF789FFC020FFF7F3
:101D6C00A0FF8120FFF783FF0120FFF79AFF82205D
:101D7C00FFF77DFF0720FFF794FF8320FFF777FF26
:101D8C003820FFF78EFF8820FFF771FF6420FFF7E4
:101D9C0088FFB420FFF76BFF0820FFF782FF892034
:101DAC00FFF765FF8620FFF77CFF8B20FFF75FFFB7
:101DBC003C20FFF776FF8D20FFF759FF5120FFF7EE
:101DCC0070FF8E20FFF753FF7020FFF76AFF36205D
:101DDC00FFF74DFF4820FFF764FF3A20FFF747FF5E
:101DEC000520FFF75EFFBF20FFF741FF1F20FFF725
:101DFC0058FF7D20FFF73BFF4520FFF752FF0620E1
:101E0C00FFF74FFFEE20FFF732FF0020FFF749FFEF
:101E1C000620FFF746FFF420FFF729FF5320FFF7BA
:101E2C0040FFF620FFF723FF0720FFF73AFF0820BB
:101E3C00FFF737FF7020FFF71AFF4F20FFF731FF36
:101E4C004F20FFF72EFF7120FFF711FF1220FFF735
:101E5C0028FF2020FFF725FF7220FFF708FF122034
:101E6C00FFF71FFF2020FFF71CFFB520FFF7FFFE39
:101E7C005020FFF716FFBA20FFF7F9FE0020FFF7FE
:101E8C0010FFEC20FFF7F3FE7120FFF70AFF7B2019
:101E9C00FFF7EDFE0020FFF704FF0D20FFF701FF19
:101EAC007C20FFF7E4FE0D20FFF7FBFE0320FFF77D
:101EBC00F8FEF520FFF7DBFE0220FFF7F2FE102004
:101ECC00FFF7EFFE1220FFF7ECFEF020FFF7CFFE3E
:101EDC000820FFF7E6FE0C20FFF7E3FE0B20FFF7D0
:101EEC00E0FE0920FFF7DDFE0320FFF7DAFE3320CA
:101EFC00FFF7D7FE4920FFF7D4FE6C20FFF7D1FE89
:101F0C009C20FFF7CEFE2E20FFF7CBFE3020FFF7F4
:101F1C00C8FE4F20FFF7C5FEF120FFF7A8FE0820F2
:101F2C00FFF7BFFE0C20FFF7BCFE0B20FFF7B9FE3E
:101F3C000620FFF7B6FE0520FFF7B3FE3320FFF7B0
:101F4C00B0FE4A20FFF7ADFEDB20FFF7AAFE8F2084
:101F5C00FFF7A7FE2C20FFF7A4FE2C20FFF7A1FE15
:101F6C009F20FFF79EFE6620FFF781FE1520FFF7EE
:101F7C0098FE6720FFF77BFE1D20FFF792FE68207E
:101F8C00FFF775FE1D20FFF78CFECA20FFF76FFED2
:101F9C000F20FFF786FEE820FFF769FEF020FFF721
:101FAC0080FECB20FFF763FE0620FFF77AFEB620FB
:101FBC00FFF75DFE5C20FFF774FE4020FFF771FE1B
:101FCC004020FFF76EFECC20FFF751FE3320FFF7C9
:101FDC0068FECD20FFF74BFE3320FFF762FE352065
:101FEC00FFF745FE0020FFF75CFE4420FFF73FFEA5
:101FFC000020FFF756FE0A20FFF753FE1120FFF7D3
:10200C0036FE5020FEF749F9E820FFF730FEA020FD
:10201C00FFF747FEE820FFF72AFEF020FFF741FE0E
:10202C00FE20FFF724FEEE20FFF721FE2920FFF70C
:10203C001EFE2C20FFF71BFE0A20FEF72EF918239C
:10204C00C4F6000348F200021A60C046BD4680BDCB
:10205C00B0B582B000AF05000C0010001900BB1D1C
:10206C002A1C1A803B1D221C1A80BB1C021C1A80C5
:10207C003B000A1C1A802823C4F6000348F2000215
:10208C001A602A20FFF7F3FDBB1D1B881B0A9BB2AD
:10209C00DAB2BB1D1B88DBB219001000FFF71BFE68
:1020AC00BB1C1B881B0A9BB2DAB2BB1C1B88DBB2A5
:1020BC0019001000FFF70FFE2B20FFF7D8FD3B1D7A
:1020CC001B881B0A9BB2DAB23B1D1B88DBB21900C2
:1020DC001000FFF700FE3B001B881B0A9BB2DAB214
:1020EC003B001B88DBB219001000FFF7F4FD2C201D
:1020FC00FFF7BDFD1823C4F6000348F200021A6076
:10210C00C046BD4602B0B0BDB0B584B000AF05004E
:10211C000C0010001900BB1D2A1C1A803B1D221C30
:10212C001A80BB1C021C1A803B000A1C1A80BA1DA8
:10213C00BB1C12881B88D3189BB2013B9CB23A1D66
:10214C003B0012881B88D3189BB2013B9AB23B1DF3
:10215C001988BB1D188813002200FFF779FF28236C
:10216C00C4F6000348F200021A601823C4F60003F8
:10217C0042F200021A600023FB602DE0FB685B005A
:10218C003A6AD3181B781B021AB2FB685B00013346
:10219C00396ACB181B781BB213431AB20A243B19A9
:1021AC001A803B191B881B0A9BB2DAB243F6000358
:1021BC00C4F2000311001800FFF79CFC3B191B88AC
:1021CC00DAB243F60003C4F2000311001800FFF763
:1021DC0091FCFB680133FB60BB1C1B883A00128826
:1021EC0053431A00FB689342C8D31823C4F6000368
:1021FC0048F200021A60C046BD4604B0B0BD80B5BE
:10220C0000AF40F2115000F0A3FE9023DB0540F22A
:10221C0000220121180001F012FB9023DB0540F293
:10222C0000420121180001F00AFB9023D80540F26E
:10223C0000230122022101F026FA9023D80540F256
:10224C0000230322002101F076FA9023D80540F2F6
:10225C0000430122022101F016FA9023D80540F226
:10226C0000430322002101F066FA9023D8050123D4
:10227C000222012101F007FA9023D8050123032241
:10228C00002101F058FA9023DB050121180001F020
:10229C00B7FA9023D80502230022012101F0F3F9AB
:1022AC009023D80502230322002101F044FA902345
:1022BC00DB050221180001F0A3FA40F2125000F0E5
:1022CC0047FE40F20040C4F600000123002200212A
:1022DC0001F0D9F99023D80540F200130022002117
:1022EC0001F0D1F9C046BD4680BD80B500AF40F2CB
:1022FC00115000F02DFE9023DB0504220121180063
:10230C0001F09DFA9023DB0508220121180001F051
:10231C0096FA9023D80504230122022101F0B3F987
:10232C009023D80504230122002101F004FA902304
:10233C00D80508230122022101F0A5F99023D80524
:10234C0008230122002101F0F6F9C046BD4680BDEC
:10235C0080B500AF40F26923C2F2000300221A706C
:10236C0040F27023C2F2000300221A7040F2722372
:10237C00C2F2000301221A7040F66C43C2F2000351
:10238C005B681A0040F27423C2F200031A60C04664
:10239C00BD4680BD80B582B000AF40F66C43C2F242
:1023AC0000035B687B6040F27223C2F200031B786F
:1023BC00DBB2002B5BD09023DB0542F2000118004E
:1023CC0001F02BFA0300012B2CD140F26923C2F24D
:1023DC0000031B78DBB29BB940F26C23C2F2000302
:1023EC007A681A6040F26923C2F200031B78DBB2F0
:1023FC000133DAB240F26923C2F200031A7024E00E
:10240C0040F26C23C2F200031B687A68D31A40F6C0
:10241C00B732934219D940F27023C2F20003012261
:10242C001A7012E040F26923C2F200031B78DBB28F
:10243C002BB140F27123C2F2000301221A7040F258
:10244C006923C2F2000300221A7040F27423C2F214
:10245C0000031B687A68D31A40F6AB52934207D933
:10246C0040F27223C2F2000300221A7000E0C04650
:10247C00BD4602B080BD80B500AF40F27223C2F2FF
:10248C0000031B78DBB23BBB40F27023C2F20003AB
:10249C001B78DBB2190040F27123C2F200031B78E7
:1024AC00DBB21A0045F66823C0F60003180002F0F0
:1024BC0035F940F27023C2F200031B78DBB233B95A
:1024CC0040F27123C2F200031B78DBB20BB901237B
:1024DC0000E00023DBB200E000231800BD4680BD05
:1024EC0080B500AF40F2115000F032FD9023D805BA
:1024FC00F0230022032101F0C6F8C046BD4680BD82
:10250C0080B500AF40F2115000F022FD9023D805A9
:10251C0040F2F0630022032101F0B5F80021002005
:10252C0000F068FFC046BD4680BD80B500AF90236B
:10253C00DB0540F20011180001F055F9C046BD460C
:10254C0080BD80B500AF9023DB0540F20011180070
:10255C0001F056F9C046BD4680BD80B500AF0420E1
:10256C00FEF7F5FAC046BD4680BD80B500AF90239E
:10257C00DB050221180001F036F9C046BD4680BDCE
:10258C0080B500AF40F20043C4F6000301211800EF
:10259C0001F043F90300013B5A1E9341DBB21800D2
:1025AC00BD4680BD80B500AF45F6D023C0F6000314
:1025BC00180002F04BF9FFF7D0FFFEF71FFC41F2B9
:1025CC009C03C2F2000301225242DA80E1235B0237
:1025DC001800FEF7C6FB032000F02BFDE1235B0285
:1025EC001800FEF716FB00211B2001F006F88023D3
:1025FC009A0343F60003C4F201031100180000F023
:10260C00DDF943F60003C4F20103180000F054F99D
:10261C00C04643F60003C4F2010340F216711800E1
:10262C0000F001FA0300002BF3D0C04643F6000380
:10263C00C4F2010340F21071180000F0F4F9030029
:10264C00012BF3D043F60003C4F20103180000F091
:10265C00A7F943F60003C4F2010340F21621180057
:10266C0000F018FA40F21C7000F072FC45F6EC23F6
:10267C00C0F60003180002F0E9F80021012000F078
:10268C00B9FEC046BD4680BD0D488546002103E01D
:10269C000C4B5B58435004310B480C4B42189A427C
:1026AC00F6D30B4A02E0002313600432094B9A4222
:1026BC00F9D301F04FF902F009F8FDF71BFEFEE724
:1026CC00D81C0020445F0008000000203C020020C1
:1026DC003C020020D8100020FEE780B582B000AF8D
:1026EC0078607A6844F20043C4F200039A420FD037
:1026FC007A6843F60003C4F201039A4211D140F206
:10270C000E3000F04AFC40F20E3000F06BFC09E099
:10271C0040F2114000F041FC40F2114000F062FC2C
:10272C0000E0C046C046BD4602B080BD80B586B054
:10273C0000AF7860396000237B6100233B6100238C
:10274C00FB600023BB607A6844F20043C4F20003D0
:10275C009A420CD07A6843F60003C4F201039A4201
:10276C000BD1052000F086FC03007B6106E0022003
:10277C0000F080FC03007B6100E0C0467B681B68B6
:10278C0048F200021340DBB17B695A003B685B08DE
:10279C00D2183B68B2FBF3F3BB60BB684FF6F07228
:1027AC0013403B61BB685B0807221340FB603A692E
:1027BC00FB681A437B680C331204120C1A6018E085
:1027CC003B685A087B69D2183B68B2FBF3F3BB60D9
:1027DC00BB684FF6F07213403B61BB680F2213408D
:1027EC00FB603A69FB681A437B680C331204120CC9
:1027FC001A60C046BD4606B080BD000080B582B0F0
:10280C0000AF786039607B681A687B6801218A4365
:10281C001A607B681A687B6806490A401A607B68F4
:10282C0019687B683A680A431A60C046BD4602B014
:10283C0080BDC046FFF9FFFF80B582B000AF786065
:10284C0039607B681A687B6801218A431A607B684F
:10285C001A687B6806490A401A607B6819687B68AD
:10286C003A680A431A60C046BD4602B080BDC046F5
:10287C00FFEFFFFF80B582B000AF786039607B68F6
:10288C001A687B6801218A431A607B6804331A68D2
:10289C007B68043307490A401A607B680433196863
:1028AC007B6804333A680A431A60C046BD4602B0DE
:1028BC0080BDC046FFCFFFFF80B582B000AF78600F
:1028CC007B681A687B6801210A431A60C046BD46C2
:1028DC0002B080BD80B582B000AF786039607B6893
:1028EC001A687B6808218A431A607B6819687B68C0
:1028FC003A680A431A60C046BD4602B080BD80B536
:10290C0082B000AF786039607B681A687B680421FC
:10291C008A431A607B6819687B683A680A431A60B4
:10292C00C046BD4602B080BD80B582B000AF7860B5
:10293C0039607B681A687B6801218A431A607B685E
:10294C001A687B6806490A401A607B6819687B68BC
:10295C003A680A431A60C046BD4602B080BDC04604
:10296C00FF7FFFFF80B582B000AF786039607B6875
:10297C0028333A68D205D20D1A60C046BD4602B063
:10298C0080BD80B582B000AF78607B6824331B6853
:10299C009BB2DB05DB0D9BB21800BD4602B080BDBF
:1029AC0080B582B000AF78607B681A687B680221C2
:1029BC000A431A60C046BD4602B080BD80B582B0E5
:1029CC0000AF786039607B681A687B6801218A43A4
:1029DC001A607B6808331A687B68083308490A4018
:1029EC001A607B68083319683A68C0239B031A4045
:1029FC007B6808330A431A60C046BD4602B080BDEE
:102A0C00FFFFCFFF80B582B000AF78607B68D0331A
:102A1C001A687B68D03340F200110A431A60C04632
:102A2C00BD4602B080BD80B582B000AF78600A00B0
:102A3C00BB1C1A80BB1C1B889B099BB21A007B68B1
:102A4C00D3181A68BB1C1B881F210B40DA401300DB
:102A5C00012213400BB1012300E000231800BD46F6
:102A6C0002B080BD80B582B000AF78600A00BB1C9C
:102A7C001A807B6820331968BB1C1B881F221340EB
:102A8C0001229A407B6820330A431A60C046BD4637
:102A9C0002B080BD80B582B000AF78600A00BB1C6C
:102AAC001A80BB1C1B889B099BB21A007B68D3182D
:102ABC001968BB1C1B881F22134001229A40BB1CA7
:102ACC001B889B099BB218007B68C3180A431A60C9
:102ADC00C046BD4602B080BD80B582B000AF786004
:102AEC000A00BB1C1A80BB1C1B889B099BB21A00DA
:102AFC007B68D3181A68BB1C1B881F210B40012153
:102B0C0099400B00D943BB1C1B889B099BB2180036
:102B1C007B68C3180A401A60C046BD4602B080BD2F
:102B2C0080B584B000AF786039600023FB6000236F
:102B3C00BB603B689B099B059A0D7B68D3181B688F
:102B4C003A681F210A40012191400A001340FB60A2
:102B5C003B689A0D7B68D3181B683A68120C1F21CE
:102B6C000A40012191400A001340BB60BB681BB1B5
:102B7C00FB680BB1012300E000231800BD4604B034
:102B8C0080BD000080B582B000AF786039603A68D3
:102B9C0043F20943C3F20F439A4208D17B68D03306
:102BAC001A687B68D0330A490A401A600CE07B68CB
:102BBC00203319683B681B0C1F22134001229A40DA
:102BCC007B6820330A431A60C046BD4602B080BD04
:102BDC00FF7FFFFF80B582B000AF78601823C4F28E
:102BEC0001031B687A6813400BB1012300E000233A
:102BFC001800BD4602B080BD80B586B000AF7860CD
:102C0C00396000237B6100233B610023FB607B6800
:102C1C001B687B617B6943F2400213407B617B68DC
:102C2C001B683B613B6943F6400213403B617B6888
:102C3C0004331B68FB60FB684FF2FF021340FB6020
:102C4C007A6843F20003C4F201039A4237D13B681D
:102C5C001B687A6913437B613B685B687A69134331
:102C6C007B613B68DB687A6913437B613B681B695A
:102C7C007A6913437B613B685B697A6913437B61B7
:102C8C003B689B697A6913437B613B689B6840F2A4
:102C9C000072934207D03B689B6840F600729342E7
:102CAC0001D000233EE03B689B6840F600021340D5
:102CBC007A6913437B617B687A691A6029E03B6807
:102CCC001B683A6913433B613B685B683A69134381
:102CDC003B613B68DB683A6913433B613B681B69AA
:102CEC003A6913433B613B685B693A6913433B6147
:102CFC003B689B693A6913433B617B683A691A608C
:102D0C003B689B68FA681343FB607B680433FA6882
:102D1C001A607B681C331A687B681C3303490A40B1
:102D2C001A6001231800BD4606B080BDFFF7FFFFF7
:102D3C0080B582B000AF78607B681A687B684021F0
:102D4C000A431A60C046BD4602B080BD80B582B051
:102D5C0000AF78607B681A687B6840218A431A60F0
:102D6C00C046BD4602B080BD80B584B000AF78606F
:102D7C000A00BB1C1A807A6843F20003C4F20103F8
:102D8C009A4205D17B680C33BA1C12881A6016E083
:102D9C007B6804331B6841F200021340FB60FB6844
:102DAC0043B17B680C33BB60BB68BA1C1288D2B2CF
:102DBC001A7004E07B680C33BA1C12881A60C04687
:102DCC00BD4604B080BD80B584B000AF78607A6831
:102DDC0043F20003C4F201039A4204D17B680C3322
:102DEC001B689BB213E07B6804331B6841F2000242
:102DFC001340FB60FB6833B17B680C33BB60BB6872
:102E0C001B789BB203E07B680C331B689BB21800E9
:102E1C00BD4604B080BD80B584B000AF7860396029
:102E2C000F23FB1800221A707B6808331B68BB60E9
:102E3C003A6880239B059A425BD03A680123C2F220
:102E4C0000039A4200D36AE03A6880235B059A42F9
:102E5C0039D03A680123C1F200039A4200D35EE0F4
:102E6C003B6841F60002934237D03B6841F60002C2
:102E7C00934254D83B6841F2000293422DD03B68F8
:102E8C0041F2000293424AD83B6840F6000293425A
:102E9C0023D03B6840F60002934240D83B6840F296
:102EAC00006293422FD03B6840F20062934236D8C6
:102EBC003B6840F20022934225D03B6840F200422E
:102ECC00934220D02BE0BB6841F6000213407BBB41
:102EDC000F23FB1801221A702AE0BB6841F600028E
:102EEC0013403A689A4225D10F23FB1801221A701D
:102EFC0020E0BB6840F200621340EBB90F23FB18D3
:102F0C0001221A7018E0BB6840F2006213403A6864
:102F1C009A4213D10F23FB1801221A700EE0BB68E2
:102F2C003A68134063B10F23FB1801221A7007E0B3
:102F3C00C04606E0C04604E0C04602E0C04600E0E1
:102F4C00C0460F23FB181B781800BD4604B080BD8B
:102F5C0080B582B000AF0200BB1D1A80BB1D1B8860
:102F6C009B099BB241F2000CC4F2020C6344196839
:102F7C00BB1D1B881F22134001229A40BB1D1B88BE
:102F8C009B099BB241F2000CC4F2020C63440A434D
:102F9C001A60C046BD4602B080BD80B582B000AF9D
:102FAC000200BB1D1A80BB1D1B889B099BB241F202
:102FBC00000CC4F2020C63441968BB1D1B881F2251
:102FCC00134001229A40BB1D1B889B099BB241F206
:102FDC00000CC4F2020C63440A431A60C046BD469E
:102FEC0002B080BD80B582B000AF0200BB1D1A805C
:102FFC00BB1D1B889B099BB241F2000CC4F2020C56
:10300C0063441A68BB1D1B881F210B40012199408A
:10301C000B00D943BB1D1B889B099BB241F2000CD2
:10302C00C4F2020C63440A401A60C046BD4602B0AA
:10303C0080BD80B582B000AF786041F23003C4F23D
:10304C0002031A6841F23003C4F2020303218A43DB
:10305C001A6041F23003C4F20203196841F23003E2
:10306C00C4F202037A680A431A60C046BD4602B035
:10307C0080BD000090B59BB000AF0200FB1D1A7024
:10308C0000233B650023FB640023BB6400237B66A9
:10309C0000233B6600237B6400233B640023FB631B
:1030AC000023FB650023BB6500237B650023BB630A
:1030BC0000237B6300233B630023FB620023BB6282
:1030CC001823FA1845F60033C0F6000313CB13C2CD
:1030DC001B6813601023FA1845F61033C0F6000372
:1030EC0003CB03C20823FA1845F61033C0F60003CD
:1030FC0003CB03C241F20403C4F202031B689B0816
:10310C00032213403B653B6D022B14D03B6D022B0D
:10311C005DD83B6D1BB13B6D012B06D057E041F2E6
:10312C000023C0F27A033B6657E041F20023C0F261
:10313C007A033B6651E041F20403C4F202031B68BC
:10314C009B0C0F2213407B6541F20403C4F2020373
:10315C001B68DB0E01221340BB63BB6B012B03D13D
:10316C007B6D11337B6508E07B6D0F2B02D1102337
:10317C007B6502E07B6D02337B6541F20403C4F294
:10318C0002031B681B0C012213407B637B6B9BB1FE
:10319C0041F22C03C4F202031B680F2213400133CB
:1031AC003B6341F20023C0F27A033A6BB3FBF2F3B8
:1031BC007A6D53433B6610E0796D0A005201521A46
:1031CC0093019B1ADB005B181B023B6605E041F286
:1031DC000023C0F27A033B66C04641F20403C4F2FA
:1031EC0002031B681B090F221340FB621823FA18F9
:1031FC00FB6AD3181B78BB623A6EBB6ADA401300C9
:10320C007B6441F20403C4F202031B681B0A07220D
:10321C001340FB621023FA18FB6AD3181B78BB62AD
:10322C007A6CBB6ADA4013003B6441F20403C4F2CB
:10323C0002031B68DB0A07221340FB620823FA18FF
:10324C00FB6AD3181B78BB627A6CBB6ADA4013003A
:10325C00FB63FB1D1B78052B00D9C3E09A00644B64
:10326C00D3181B689F463B6E7B66BCE07B6C7B6611
:10327C00B9E03B6C7B66B6E0FB6B7B66B3E041F27E
:10328C003003C4F202031B6840F20012134040F2F8
:10329C000012934217D041F23003C4F202031A68B1
:1032AC0080235B021A4080235B029A4205D049F6C8
:1032BC008073C0F2D503FB655CE043F60073C0F28B
:1032CC00AB13FB6556E041F20403C4F202031B6826
:1032DC009B0B03221340FB6441F23003C4F2020344
:1032EC001B68DB0F01221340BB64FB6C032B34D037
:1032FC00FB6C032B3DD8FB6C022B20D0FB6C022B00
:10330C0037D8FB6C1BB1FB6C012B0CD031E0BB6CC8
:10331C001BB9FB6B5B08FB652CE07B6C0322B3FBDE
:10332C00F2F3FB6526E0BB6C1BB9FB6B9B08FB65E2
:10333C0020E07B6C0522B3FBF2F3FB651AE0BB6C5F
:10334C002BB9FB6B0622B3FBF2F3FB6512E07B6C33
:10335C000722B3FBF2F3FB650CE0BB6C1BB9FB6BF8
:10336C00DB08FB6506E07B6C0922B3FBF2F3FB6523
:10337C0000E0C046FB6D7B6635E041F23003C4F2E1
:10338C0002031B680322134013B9FB6BBB6526E0D9
:10339C0041F23003C4F202031B6803221340012BD9
:1033AC0002D13B6EBB651AE041F23003C4F202035A
:1033BC001B6803221340022B03D148F20003BB65A8
:1033CC000DE041F23003C4F202031B6803221340E8
:1033DC00032B04D141F20023C0F27A03BB65BB6D11
:1033EC007B6600E0C0467B6E1800BD461BB090BDEE
:1033FC00585B000880B582B000AF78600A00FB1CF7
:10340C001A7047F20003C4F200031A6847F2000373
:10341C00C4F2000303218A431A6047F20003C4F28A
:10342C000003196847F20003C4F200037A680A43E8
:10343C001A604EF60053CEF200031A694EF6005392
:10344C00CEF2000304210A431A61FB1C1B780BB952
:10345C0030BF02E040BF20BF20BF4EF60053CEF27B
:10346C0000031A694EF60053CEF2000304218A437E
:10347C001A61C046BD4602B080BD80B582B000AFB7
:10348C000200FB1D1A70FB1D1B787F2B12D8FB1D35
:10349C001B781A001F231A4011004EF20013CEF2B3
:1034AC000003FA1D127852B2520901208840010023
:1034BC009200D150C046BD4602B080BD80B582B0EE
:1034CC0000AF0200FB1D1A70FB1D1B787F2B19D857
:1034DC00FB1D1B781A001F231A4011004EF200131B
:1034EC00CEF20003FA1D127852B252090120884024
:1034FC00010020329200D150BFF34F8FC046BFF372
:10350C006F8FC046C046BD4602B080BD90B583B03B
:10351C0000AF02003960FB1D1A70FB1D1B787F2B5E
:10352C002FD84EF20013CEF20003FA1D127852B2CD
:10353C009208C0329200D358FA1D1278110003225F
:10354C000A40D200FF2191400A00D2431A401000D9
:10355C003B689B01FF221A40FB1D1B7819000323BB
:10356C000B40DB009A4011004EF20013CEF2000328
:10357C00FA1D127852B292080143C0329200D15017
:10358C0037E04EF60053CEF20003FA1D127811000C
:10359C000F220A40083A9208063292009B18043314
:1035AC001B68FA1D1278110003220A40D200FF2179
:1035BC0091400A00D2431A4010003B689B01FF2245
:1035CC001A40FB1D1B78190003230B40DB009A40AB
:1035DC004EF60053CEF20003F91D09780C000F21B2
:1035EC002140083989080243063189005B180433ED
:1035FC001A60C046BD4603B090BD80B582B000AF26
:10360C000200FB1D1A70BB1D0A1C1A70BB1D1A7818
:10361C00FB1D1B785BB211001800FFF777FFFB1D39
:10362C001B785BB21800FFF728FFC046BD4602B0FE
:10363C0080BD80B582B000AF0200FB1D1A70FB1D6F
:10364C001B785BB21800FFF739FFC046BD4602B0CD
:10365C0080BD80B582B000AF786039603A684FF6B3
:10366C008073C1F6FF731A4011004EF60053CEF270
:10367C0000037A680A439A60BFF34F8FC046C04676
:10368C00BD4602B080BD80B588B000AFF860B960AF
:10369C007A603B60FB681B68BB61FB680C331B6882
:1036AC007B611E23FB1800221A8034E01E217B183C
:1036BC001B8801229A4013003A6813402BB37B18E5
:1036CC001B885B0003229A401300DA43BB6913404A
:1036DC00BB617B181B885B00BA689A401300BA69FF
:1036EC001343BB617B181B885B0003229A401300B9
:1036FC00DA437B6913407B617B181B885B007A681B
:10370C009A4013007A6913437B611E217B181A8837
:10371C007B1801321A801E23FB181B880F2BC5D96E
:10372C00FB68BA691A60FB680C337A691A60C04688
:10373C00BD4608B080BD80B586B000AFF8607A6039
:10374C003B600B203B180A1C1A703B181B78012B92
:10375C0008D1FB6804331968FB6804333A680A43E0
:10376C001A6008E0FB6804331A683B68D943FB68AD
:10377C0004330A401A60FB6808331B683B6116234C
:10378C00FB1800221A8021E016217B181B880122CD
:10379C009A4013003A68134093B17B181B885B0066
:1037AC0003229A401300DA433B6913403B617B18B8
:1037BC001B885B007A689A4013003A6913433B619B
:1037CC0016217B181A887B1801321A801623FB18D5
:1037DC001B880F2BD8D9FB6808333A691A60C0468E
:1037EC00BD4606B080BD80B582B000AF7860396050
:1037FC007B6818333A681A60C046BD4602B080BD7B
:10380C0080B582B000AF786039607B6828333A6845
:10381C001A60C046BD4602B080BD80B582B000AF14
:10382C00786039607B6810331B683A6813400BB1C1
:10383C00012300E000231800BD4602B080BD80B516
:10384C0088B000AFF860B9607A60FB6820331B6801
:10385C00BB61FB6824331B687B611E23FB180022B1
:10386C001A8021E01E217B181B8801229A4013002C
:10387C007A68134093B17B181B889B000F229A40E7
:10388C001300DA43BB691340BB617B181B889B0098
:10389C00BA689A401300BA691343BB611E217B18A6
:1038AC001A887B1801321A801E22BB181B88072B22
:1038BC00D8D9BB1808221A8023E01E217B181B883C
:1038CC0001229A4013007A681340A3B17B181B881D
:1038DC00083B9B000F229A401300DA437B6913408C
:1038EC007B617B181B88083B9B00BA689A401300CD
:1038FC007A6913437B611E217B181A887B1801326D
:10390C001A801E23FB181B880F2BD6D9FB6820337B
:10391C00BA691A60FB6824337A691A60C046BD46DE
:10392C0008B080BD80B584B000AF78600023FB6028
:10393C0002E0FB680133FB607A6813009B009B1864
:10394C005B001A00FB689A42F3D8C046C046BD46DD
:10395C0004B080BD80B582B000AF41F20003C4F268
:10396C0002031A6841F20003C4F2020301210A4364
:10397C001A60C04641F20003C4F202031B68022223
:10398C001340002BF6D041F20403C4F202031B686F
:10399C000C221340082B39D141F20403C4F2020368
:1039AC001B683B603B68F02293433B603B68802282
:1039BC0013433B6041F20403C4F202033A681A60F9
:1039CC0000237B6002E07B6801337B607B687F2B8C
:1039DC00F9D941F20403C4F202031B683B603B6853
:1039EC00F02293433B603B68902213433B6041F2CF
:1039FC000403C4F202033A681A6000237B6002E0FD
:103A0C007B6801337B607B687F2BF9D941F204031F
:103A1C00C4F202031A6841F20403C4F20203032144
:103A2C008A431A606420FFF77DFF41F20003C4F261
:103A3C000203196841F20003C4F202034FF6FF724D
:103A4C00CFF6F2620A401A6041F20403C4F2020398
:103A5C00196841F20403C4F202030C22C0F6FF02FF
:103A6C000A401A6041F20403C4F20203196841F2DD
:103A7C000403C4F202034FF6FF72C7F2C2720A408B
:103A8C001A6041F22C03C4F202031A6841F22C03AF
:103A9C00C4F202030F218A431A6041F23003C4F2CC
:103AAC0002031A6841F23003C4F202031C490A40B3
:103ABC001A6041F23003C4F202031A6841F2300377
:103ACC00C4F2020317490A401A6041F23003C4F2EF
:103ADC0002031A6841F23003C4F202035200520886
:103AEC001A6041F23403C4F202031A6841F234033F
:103AFC00C4F2020301218A431A6041F20803C4F2A2
:103B0C00020300221A6000F00FF880231B0500212D
:103B1C001800FFF79EFDC046BD4602B080BDC046F2
:103B2C00FCFEFFFFFFFFFEFF80B500AF00F003F8C7
:103B3C00C046BD4680BD80B586B000AF00237B611A
:103B4C0000233B6141F20003C4F202031A6841F204
:103B5C000003C4F2020301210A431A607B6901339A
:103B6C007B6141F20003C4F202031B680222134082
:103B7C003B613B6923B97B6940F200529342EDD122
:103B8C0041F20003C4F202031B680222134003B982
:103B9C00FEE742F20003C4F202031B6807229343C0
:103BAC001A0042F20003C4F2020302210A431A6013
:103BBC0041F20403C4F202031A6841F20403C4F292
:103BCC00020390210A431A6041F20402C4F2020279
:103BDC0041F20403C4F2020312681A6041F20402B7
:103BEC00C4F2020241F20403C4F2020312681A6026
:103BFC0041F20403C4F20203196841F20403C4F253
:103C0C0002034FF6FF72CFF2C2720A401A6041F201
:103C1C000403C4F20203196841F20403C4F2020360
:103C2C000022C0F604020A431A6041F20003C4F2F7
:103C3C0002031A6841F20003C4F202038021490412
:103C4C000A431A60C04641F20003C4F202031A6828
:103C5C0080239B041340002BF5D041F20403C4F2E3
:103C6C0002031B68FB60FB6803229343FB60FB6849
:103C7C0002221343FB6041F20403C4F20203FA680C
:103C8C001A60C04641F20403C4F202031B680C2202
:103C9C001340082BF6D10023BB6002E0BB68013354
:103CAC00BB60BB687F2BF9D941F20403C4F2020359
:103CBC001B687B607B68F02293437B607B6880226F
:103CCC0013437B6041F20403C4F202037A681A6066
:103CDC000023BB6002E0BB680133BB60BB687F2B79
:103CEC00F9D941F20403C4F202031B687B607B68C0
:103CFC00F02293437B607B687B6041F20403C4F247
:103D0C0002037A681A60C046BD4606B080BD80B515
:103D1C0082B000AF786040F2D413C2F200031A688C
:103D2C007B68D21841F2D803C2F200039A420CD33A
:103D3C0040F2D413C2F200031A687B68D21841F225
:103D4C00D843C2F200039A4202D901235B4213E02A
:103D5C0040F2D413C2F200031A687B68D21840F206
:103D6C00D413C2F200031A6040F2D413C2F200035F
:103D7C001A687B685B42D3181800BD4602B080BD40
:103D8C0080B586B000AFF860B9607A6000237B61C3
:103D9C000AE0BB685A1CBA601B785BB21800FCF7CF
:103DAC005DFC7B6901337B617A697B689A42F0DB4D
:103DBC007B681800BD4606B080BD80B582B000AFF0
:103DCC00786001235B421800BD4602B080BD80B50F
:103DDC0082B000AF786039603B6842F200025A60F2
:103DEC0000231800BD4602B080BD80B582B000AF84
:103DFC00786001231800BD4602B080BD80B584B048
:103E0C0000AFF860B9607A6000231800BD4604B0BA
:103E1C0080BD80B586B000AFF860B9607A600023D1
:103E2C007B610AE000E000BF0100BB685A1CBA606D
:103E3C004AB21A707B6901337B617A697B689A425A
:103E4C00F0DB7B681800BD4606B080BD70B50C0079
:103E5C0002390500FDF74CF82B1982B2991E120A93
:103E6C00013B0A7018707E210F48FCF7ADFF00264D
:103E7C00A64205DB7E210C48FCF7A6FF002070BD96
:103E8C00A95D7E2909D101390748FCF79DFF5E2108
:103E9C000548FCF799FF0136EAE703487D29F8D17C
:103EAC00FCF792FF5D21F3E70038014070B509483B
:103EBC00094C00F0CBFC0020A569FDF764F8002349
:103ECC002880A06906214380FFF7C0FF0923E38007
:103EDC0070BDC046705B00089C10002070B50D488A
:103EEC000D4C00F0B3FC0220A569FDF74CF82880BE
:103EFC000520A569FDF747F8A36968800522181D00
:103F0C000649FDF799F80B21A069FFF79FFF0323E2
:103F1C00E38070BD875B00089C10002064020020C9
:103F2C0070B50948094C00F091FC0320A569FDF718
:103F3C002AF800232880A06906214380FFF786FF1A
:103F4C000423E38070BDC0469E5B00089C100020DB
:103F5C0070B50D480D4D00F079FC0420AC69FDF7EF
:103F6C0012F800232080A86906214380FFF76EFF1A
:103F7C000523EB80064B04001B689B689B6A03B10E
:103F8C009847200070BDC046B65B00089C1000200E
:103F9C006002002037B5104800F058FCE120000307
:103FAC00FDF70CF80D4C01900920A569FCF7EBFF0F
:103FBC0028800420A569FCF7E6FFA3696880042229
:103FCC00181D01A9FDF738F80A21A069FFF73EFF7B
:103FDC000123E3803EBDC046CF5B00089C1000204F
:103FEC0010B5084800F032FCFEF77AFAFEF7C8FA72
:103FFC0004000028FAD1044800F028FCFEF7D2FA9D
:10400C00200010BDE55B0008FD5B0008F8B54D4CC9
:10401C002669002E40DD0327E5692079013E05D293
:10402C00032839D000202071E0601EE0012820D048
:10403C0002282AD028B92B787E2B04D17D3B237102
:10404C00E0600135E9E7552B10D1E36861695A1C32
:10405C00E2602A78CA543C4A137801335BB213707D
:10406C00002BEEDD032310702371F8BDFCF78CFDE3
:10407C00E7E72B787E2BE4D002232371E368616998
:10408C005A1CE2602A78CA54DBE7EF2ED9DC2B7875
:10409C007E2BF3D12771D4E70020E3688342E4DD63
:1040AC000421E060206120712848FEF7F3FC052113
:1040BC002648FEF7EFFCE1686069FCF719FF050084
:1040CC00E0BB63695B78812B19D1214800F0BEFB02
:1040DC00FDF70CF91F4B186020B91F4800F0B6FB18
:1040EC008620C2E783685B6A9847E580FFF7DEFEAF
:1040FC000021E2686069FCF77DFF0020B5E7802BAA
:10410C00F6D1E388012B09D1144800F09FFBE12084
:10411C000003FCF726FE0520FCF7BFF84FF6FF72F4
:10412C00E388934204D00E4A9B009B589847DFE7E4
:10413C00FCF72AFD01235B42E380D9E7094800F034
:10414C0085FBD5E79C100020800200200038014040
:10415C00145C000860020020285C0008485C000821
:10416C007C5E0008725C000870B5064CA569FCF713
:10417C000AFF00232880A06906214380FFF766FE12
:10418C0070BDC0469C10002040F21243F7B5594C4C
:10419C008925E25A584B1B689A4200DDA5E0574A24
:1041AC0083B2009340F21046136840F21442009917
:1041BC0001934B43A719A352A0590B002200796815
:1041CC00FDF778F94D4A050013680192013313602D
:1041DC009A2846D140F20843E25A0433E35A13407A
:1041EC004FF6FF72934200D07BE0454800F02EFB67
:1041FC0040F60002434B1B68934264D1A35B0193CE
:10420C00019A414B1B684AB9A3532200009BA05949
:10421C007968FDF74FF9019B050021E0019A9A425C
:10422C000BD10023A3532200009BA0597968FDF702
:10423C0041F9354B05001B6812E0019A0133012A44
:10424C00E2D0019A9A424CD10123A3532200009B45
:10425C00A0597968FDF72EF905002B4B1B6801332B
:10426C00A353002D3DD1294B29481B6802685E1EC3
:10427C00010096423BDC214A126892FBF3F0434367
:10428C009A4209D140F21242A35A1C480133A3525C
:10429C0040F214430560E55240F212461D4BA05B00
:1042AC001B6890FBF3F25343C21A98421DD140F2A3
:1042BC00144340F21040A253E252235A150001332A
:1042CC0023520A6011E041F20002934209D1A35B30
:1042DC000193019A0C4B1B68002A95D0019A9A42C3
:1042EC009FD029000C4800F019FA2800FEBD0132BD
:1042FC000260FAE77C0C0020780C00207802002089
:10430C00905C000800000020C0100020C4100020A9
:10431C007C020020981000209B5C0008F7B540F24E
:10432C00104400272C4D042329196A462859496842
:10433C0000970197FDF7BEF86B461B782E00442BB7
:10434C000BD16B465B78482B07D16B469B78542B73
:10435C0003D16B46DB78422B39D0204800F076FA3B
:10436C001F4B04221B68002168463353FCF742FEA6
:10437C0019493059641804236A466168FDF79AF8A4
:10438C006B461B78442B0BD16B465B78482B07D1C3
:10439C006B469B78542B03D16B46DB78422B0CD0AD
:1043AC000422104B10481A7100F050FAFEF798F8DE
:1043BC00FEF7A6F801204042FEBD40F21843012250
:1043CC000A49F2500A4800F0A9F90020F4E740F23B
:1043DC0018430849EF50F5E77C0C0020C55C000839
:1043EC00C01000209C100020E05C0008BC5C0008A1
:1043FC00FA5C0008C05C000810B504000C4800F022
:10440C008DF92000FFF7B0FEFEF76AF8FEF78DF885
:10441C008C2C0BD0E1204002FCF7A3FCFEF760F8DB
:10442C00FCF7B2FB41F64070FCF7F6FC10BDC04641
:10443C000F5D000840F20441F8B540F200431F4CF8
:10444C001F4EA2687558D318AB4231D30023053DDB
:10445C00A3601C480633AD1AE38000F0F7F9022084
:10446C00A769FCF790FD3880A8B2A769FCF78BFD13
:10447C00788040F20047A3692A00181DF159FCF717
:10448C00DBFDA069A91DFFF7E1FC3A000021F05902
:10449C00FCF7B0FDE3880024022B07D12800FFF7BE
:1044AC0073FE040010B180B2FFF7A6FF2000F8BD28
:1044BC00A360022340F20045E380D0E79C1000206B
:1044CC007C0C00202A5D0008F7B500236A463F4D9E
:1044DC0000932B683E4F9380FCF708FF386020B99F
:1044EC003C4800F0B3F9FF20FEBD83683A4E5B6A8E
:1044FC0098473A4B29681A68394B100048431860A2
:10450C0080231B0393FBF0F33648374C0360374B87
:10451C0000981A60CB179B059B0D5B1834499B12B6
:10452C000B603B6801999B683260DB6A22009847FC
:10453C0001236A4613803B682E4A9B680098DB6A0D
:10454C00019998474FF6FF73284920888C462A49D1
:10455C00244A274F641898422AD140F21043002174
:10456C00E152634629681B681268244800F0D6F8AB
:10457C00002532683968224800F0D0F840F2124623
:10458C0040F2004240F2044340F2144729001D4817
:10459C00A450E550A553E553FCF72CFD40F2104117
:1045AC00E35BA25B615A184800F0B8F828009BE75F
:1045BC0040F20C40205A984203D140F2104311684B
:1045CC00CEE78820FFF718FF88208DE70000002039
:1045DC0060020020285C00089810002004000020D5
:1045EC00BC100020C010002084100020780C00208B
:1045FC00C410002088100020F8FBFFFF3D5D000870
:10460C00795D00087C0C0020AC5D0008002337B5F8
:10461C002848009300F01AF9FFF756FFFFF77EFECB
:10462C0020B10A20FBF739FEFFF778FE2248FCF791
:10463C00C5FC019040F20040FFF7A6FD040020B13C
:10464C0080B2FFF7D9FE20003EBD40F204451B4C62
:10465C001B48626DA36D99181300A26D615100F097
:10466C005DF880211748C902615100F057F8605974
:10467C00FCF7A4FC144D00900120AC69FCF783FC02
:10468C0020800820AC69FCF77EFCAB6960800422BA
:10469C00181D01A9FCF7D0FCA86904226946083052
:1046AC00FCF7CAFC0E21A869FFF7D0FB022304001B
:1046BC00EB80C8E70A5E0008008000657C0C0020D7
:1046CC001F5E0008615E00089C10002070B500257C
:1046DC000E4C0F4BE41AA410A54209D1002501F091
:1046EC0059F80C4C0C4BE41AA410A54207D170BD20
:1046FC00074AAB009B181B6898470135ECE7064A44
:10470C00AB009B181B6898470135EEE73C5F00082F
:10471C003C5F0008405F00083C5F00080FB40A4B88
:10472C0013B51C6824B1A36913B9200000F086FAF4
:10473C0005AB2000049AA168019300F057FC16BC4D
:10474C0008BC04B01847C046D8010020074B70B510
:10475C001C68050024B1A36913B9200000F06EFA9F
:10476C0029002000A26800F0EDFE70BDD8010020E9
:10477C0070B505000E0018B183690BB900F05EFA34
:10478C00AB69AC6813B9280000F058FA2C4B9C426A
:10479C0020D16C68636EDB0705D4A3899B0502D41A
:1047AC00A06D00F0EAFAA3891B0701D5236943BB6E
:1047BC002100280000F0A6F818B301256D42636EA5
:1047CC00DB0705D4A3899B0502D4A06D00F0D6FAB3
:1047DC00280070BD1B4B9C4201D1AC68DAE71A4B28
:1047EC009C42D7D1EC68D5E70136A360002B04DAE4
:1047FC00A2699A4216DC0A2914D023685A1C22603A
:10480C001970A3683178013B0029EDD1A360002B0E
:10481C000FDA280022000A3100F022F80A25431C86
:10482C00CDD1CAE72200280000F01AF8431CE8D1C9
:10483C00C3E70A2523685A1C22601D70BFE7C046D7
:10484C00C85E0008E85E0008A85E000810B5034BBF
:10485C0001001868FFF78CFF10BDC046D80100207E
:10486C00F8B505000E00140018B183690BB900F0FF
:10487C00E5F9214B9C422CD16C68A369A360A389F8
:10488C001B0730D52369002B2DD023682269F7B282
:10489C00981A6369F6B2834204DC2100280000F008
:1048AC002FF930BBA3680130013BA36023685A1C6D
:1048BC0022601F706369834204D0A389DB0706D58D
:1048CC000A2E04D12100280000F01AF988B9300012
:1048DC00F8BD0A4B9C4201D1AC68CEE7084B9C4218
:1048EC00CBD1EC68C9E72100280000F00BF80028B8
:1048FC00CBD001267642EAE7C85E0008E85E0008E5
:10490C00A85E0008354B70B51D6806000C0025B17B
:10491C00AB6913B9280000F091F9314B9C420FD1CF
:10492C006C680C23E25E93B211072CD4D90611D417
:10493C0009230120336037331343A381404270BDF8
:10494C00284B9C4201D1AC68EBE7274B9C42E8D149
:10495C00EC68E6E75B0712D5616B41B12300443389
:10496C00994202D0300000F073FA002363632422D2
:10497C00A3899343A38100236360236923600823E5
:10498C00A2891343A38123695BB940F2802140F2D1
:10499C000022A3890B40934203D02100300000F089
:1049AC0017FA0C22A35E01201A0099B202400342AE
:1049BC000FD00022A26062695242A26122690020DB
:1049CC00002ABCD10A06BAD540221343A381013870
:1049DC00B5E7880700D46269A260EFE7D801002030
:1049EC00C85E0008E85E0008A85E0008F7B58B8971
:1049FC0005000C001A075DD44A68002A04DC0A6C16
:104A0C00002A01DC0020FEBDE76A002FFAD000224C
:104A1C0041F200012E682A601A000A400B4232D083
:104A2C00606DA3895B0705D56368C01A636B0BB116
:104A3C00236CC01A0200216A00232800E76AB847D9
:104A4C00A189431C06D12B681D2B30D82B4ADA4088
:104A5C00D3072CD50023636023692360CB0404D5D2
:104A6C00431C01D12B6803B96065616B2E60002972
:104A7C00C8D023004433994202D0280000F0E8F952
:104A8C0000206063BFE701232800216AB847431C5C
:104A9C00C7D12B68002BC4D01D2B01D0162B01D1F4
:104AAC002E60AFE74023A2891343A381ABE74023D9
:104ABC000B43FAE70F69002FA4D00A680F60D21BD2
:104ACC00019200229B0700D14A69A260019B002B36
:104ADC0098DD3A002800019B216AA66AB04700289D
:104AEC0006DC40230120A28940421343A3818AE7BC
:104AFC00019B3F181B1A0193E8E7C04601004020B8
:104B0C000B6970B505000C0013B90025280070BDA9
:104B1C0018B183690BB900F091F8144B9C421BD16E
:104B2C006C680C22A35E002BEFD0626ED20704D40B
:104B3C009B0502D4A06D00F020F928002100FFF79E
:104B4C0055FF636E0500DB07E0D4A3899B05DDD41C
:104B5C00A06D00F013F9D9E7054B9C4201D1AC686C
:104B6C00DFE7044B9C42DCD1EC68DAE7C85E000856
:104B7C00E85E0008A85E0008002310B5040003607E
:104B8C0043608360818143661900C2810361436184
:104B9C00836108225C30FCF72DFA054B6362054BF0
:104BAC002462A362044BE362044B236310BDC04632
:104BBC000156000829560008615600088D56000859
:104BCC0010B5024900F0B8F810BDC0460D4B0008F6
:104BDC0070B568254A1E55430E002900743100F04B
:104BEC0081F9040040B100212A00016046600C30BC
:104BFC00A0606832FCF7FEF9200070BD10B50248C9
:104C0C0000F0BBF810BDC046D410002010B502480F
:104C1C0000F0B4F810BDC046D410002010B5024806
:104C2C0000F0ABF810BDC046CF10002010B5024804
:104C3C0000F0A4F810BDC046CF10002013B504003E
:104C4C00FFF7ECFFA36913B1FFF7F0FF13BDA364EB
:104C5C00E3642365134B144A1B68A2620193A342BD
:104C6C0001D10123A361200000F020F86060200036
:104C7C0000F01CF8A060200000F018F800220421BD
:104C8C00E0606068FFF778FF01220921A068FFF758
:104C9C0073FF02221221E068FFF76EFF0123A3616C
:104CAC00D2E7C046A45E0008CD4B0008F8B507005B
:104CBC00FFF7A4FF1E4B1E68B36913B93000FFF752
:104CCC00BDFF4836B4687368013B03D533680BB33A
:104CDC003668F7E70C22A55ED5B92000154B583085
:104CEC00E360656600F048F8FFF790FF20000822AB
:104CFC0029002560A560656025616561A5615C3052
:104D0C00FCF778F96563A563A564E5642000F8BD3C
:104D1C006834D9E704213800FFF75AFF04003060EB
:104D2C000028D5D1FFF772FF0C233B60EEE7C0469D
:104D3C00A45E00080100FFFFF7B504000600002781
:104D4C00019148346368A5680093009B013B009374
:104D5C0004D52468002CF5D13800FEBDAB89012B9D
:104D6C0008D90E22AB5E013304D029003000019B20
:104D7C00984707436835E8E770477047704700006D
:104D8C0070B50E001D000E23C95E140096B00029EC
:104D9C0007DA00232B60B3891B0611D440F20043C1
:104DAC000FE06A4600F094FC0028F2DB4FF200039F
:104DBC0001991940054BC9184B4259412960EDE73F
:104DCC0040230020236016B070BDC04600E0FFFFFA
:104DDC00F7B502268B8905000C00334206D0230060
:104DEC0047332360236101236361F7BD6A4601AB3E
:104DFC00FFF7C6FF00990700280000F073F840B9D0
:104E0C000C22A35E9A05F0D4032293431E43A68181
:104E1C00E5E70E4BAB628023A28920601343A3818C
:104E2C00009B20616361019B63B128000E23E15E4E
:104E3C0000F060FC30B10322A38993431A000123D4
:104E4C001343A381A0890743A781CEE7CD4B00086C
:104E5C0070B5050081B10C1F2368002B00DAE41833
:104E6C00280000F075FC1E4A136811002BB9636012
:104E7C001460280000F074FC70BDA3420AD92268AB
:104E8C00A018834203D118685B68821822606360A3
:104E9C000C60EEE71A005B680BB1A342FAD91168FB
:104EAC005018A0420BD12068091850181160834289
:104EBC00DFD118685B68411811605360D9E7A042D4
:104ECC0002D90C232B60D4E721686018834203D1EC
:104EDC0018685B684118216063605460C9E7C0467C
:104EEC0084020020F8B50323CD1C9D430835060031
:104EFC000C2D1DD20C25A9421CD8300000F028FC2A
:104F0C0024490A681400CCB9234F3B6823B921000B
:104F1C00300000F05FFB38602900300000F05AFBD5
:104F2C00431C2BD10C233000336000F019FC03E040
:104F3C00002DE0DA0C2333600020F8BD23685B1BE6
:104F4C0019D40B2B03D92360E418256003E06368A4
:104F5C00A2420ED10B60300000F002FC20000722B0
:104F6C000B30231D9043C21A9842E6D01B1AA35053
:104F7C00E3E75360EFE722006468C4E70323C41C33
:104F8C009C43A042E1D0211A300000F023FB431CCB
:104F9C00DBD1C7E78402002088020020936810B59B
:104FAC00013B9360002B04DA9469A34207DB0A29C6
:104FBC0005D01368581C10601970080010BDFFF75D
:104FCC004FFC0100F9E7F8B506000F001400D518E6
:104FDC00AC4201D1002007E021783A003000FFF705
:104FEC00DDFF0134431CF3D1F8BD0000F0B5A1B0D6
:104FFC0007000C001E00039218B183690BB9FFF770
:10500C001DFE8B4B9C421AD17C68636EDB0705D46A
:10501C00A3899B0502D4A06DFFF7AFFEA3891B07E4
:10502C0001D52369E3B921003800FFF76BFCB8B157
:10503C00636EDB070DD50120404221B0F0BD7D4BE6
:10504C009C4201D1BC68E0E77B4B9C42DDD1FC6803
:10505C00DBE7A3899B05EED4A06DFFF78FFEEAE793
:10506C00002308AD6B6120336B761033AB7607965B
:10507C00039E33780BB1252B4DD1039BF31A05936B
:10508C00039B9E420DD0059B21003800039AFFF72D
:10509C009AFF431C00D1B3E06A69059B94466344B4
:1050AC006B613378002B00D1AAE00122731C0393AF
:1050BC00002352426A6004A9543252182B60EB60F0
:1050CC00AB601370AB65039B052219785B4800F04D
:1050DC0033FB039B5E1C00BB2A68D30604D5532309
:1050EC0004A95B1820211970130704D5532304A9B4
:1050FC005B182B211970039B1B782A2B16D00021CF
:10510C0040F20A0CEB68039E3278701C303A092A84
:10511C004CD989B917E00136ABE7484B2A68C01A5D
:10512C000123834013432B600396CCE7079B191D87
:10513C001B680791002B01DB0B9304E05B42EB60D7
:10514C00022313432B6033782E2B0AD173782A2B2E
:10515C0035D1079B02361A1D1B680792002B2BDBDF
:10516C00099303223178364800F0E6FA38B1344B13
:10517C002A68C01A40238340134301362B603178D0
:10518C00731C06222F480393297600F0D5FA0028C9
:10519C0045D02D4B43BB0722079B07339343083362
:1051AC0007936B69049A9B186B6161E761464B43EB
:1051BC00060001219B18A7E701235B42D0E70023DF
:1051CC0040F20A0C1A0001366B603178701C3039D1
:1051DC00092903D9002BC4D00992C2E763465A436C
:1051EC00060001235218F0E707AB009322002900B8
:1051FC003800164B00E000BF0490049B0133D0D163
:10520C00636EDB0705D4A3899B0502D4A06DFFF761
:10521C00B5FDA3895B0600D50DE70D980DE707AB2F
:10522C000093220029003800084B00F07FF8E3E7D8
:10523C00C85E0008E85E0008A85E0008085F000869
:10524C000E5F0008125F000800000000D34F00083A
:10525C00F7B5150001938A680B690C000090934216
:10526C0000DA130022002B60433212780AB10133AA
:10527C002B6023689B0602D52B6802332B602268B7
:10528C00062317001F401A4227D0230043331B78F4
:10529C005A1E93412268920630D42200019900983C
:1052AC00089E4332B047431C25D0062320682A6849
:1052BC00E16800250340042B03D18D1AEB43DB1767
:1052CC001D40A3682269934201DD9B1AED1800274B
:1052DC00BD4220D1002010E00137E3682A689B1AF8
:1052EC00BB42D2DD2200012301990098089E19329D
:1052FC00B047431CF0D101204042FEBD3020E118E4
:10530C004331087021005A1C45310978A2184332E8
:10531C0002331170C1E72200012301990098089E05
:10532C001A32B047431CE6D00137D1E7F0B50E0076
:10533C0089B00492039005930C00097E0E9A4336B3
:10534C00782907D8622909D8002900D1BCE058294E
:10535C0000D184E025004235297022E00800633832
:10536C001528F7D8FAF7ACFE16001F00F6FFF6FF6B
:10537C00F6FFF6FF1F00F6FFF6FFF6FFF6FFA300A1
:10538C0034009200F6FFF6FFB400F6FF3400F6FF8F
:10539C00F6FF9600250013684235191D1B68116035
:1053AC002B700123A1E013682068191D050609D58F
:1053BC001B681160002B02DA2D225B4232700A222C
:1053CC005E4914E01B6811604006F3D51BB2F1E78F
:1053DC0013682568181D10601B682F063BD56F29B4
:1053EC0062D00A22554920000025433005706068C0
:1053FC00A060002803DB04252768AF4327600BB9A6
:10540C00350060B13500B3FBF2FC60465043181A0E
:10541C00085C013D2870180063468242F3D9082AC3
:10542C0009D12368DB0706D563682269934202DC45
:10543C003023013D2B70761B2661059B21000093C8
:10544C000398049B07AAFFF703FF431C51D10120CB
:10545C00404209B0F0BD6D06C1D59BB2BFE7230039
:10546C004533197035491068256808C810602F0637
:10547C0016D5EA0702D52022154325601022002BF1
:10548C00B1D12020256885432560ACE72023216815
:10549C000B43236023007821453319702849E2E738
:1054AC006F06E6D59BB2E4E7082224499BE7136814
:1054BC002568181D616910601B682F0601D51960DD
:1054CC0002E06D06FBD51980002335002361B4E79B
:1054DC001368191D11601D6800212800626800F016
:1054EC002BF908B1401B60606368236100233370A3
:1054FC00A3E72A00236904990398059DA847431C38
:10550C00A5D023689B0716D4079BE0689842A0DAC5
:10551C0018009EE72200012304990398059E193276
:10552C00B047431C00D192E70135E368079A9B1AF8
:10553C00AB42EFDCE8E70025F7E7C046195F00084F
:10554C002A5F000870B506000D00140018B18369BD
:10555C000BB9FFF773FB1C4B9C4224D17468636E30
:10556C00DB0705D4A3899B0502D4A06DFFF705FCCE
:10557C00A368013BA360002B05DAA26993421CDBF4
:10558C00EBB20A2B19D023685A1C22601D70EDB2A5
:10559C00636EDB0705D4A3899B0502D4A06DFFF7CE
:1055AC00EDFB280070BD094B9C4201D1B468D6E7D5
:1055BC00074B9C42D3D1F468D1E72900220030007C
:1055CC00FFF74EF90500E3E7C85E0008E85E000847
:1055DC00A85E0008002370B5054D040008002B6080
:1055EC00FEF795FB431C02D12B6803B1236070BD01
:1055FC00C810002070B50C000E25495F00F0B8F8FB
:10560C00002803DB636D1B18636570BDA389024A18
:10561C001340A381F9E7C046FFEFFFFFF8B51F0069
:10562C008B8905000C001600DB0505D50E23C95E21
:10563C000022022300F06EF8A389054A28001340CB
:10564C00A38132000E23E15E3B0000F01FF8F8BD91
:10565C00FFEFFFFF70B50C000E25495F00F05AF804
:10566C00A389421C03D1054A1340A38170BD41F2AA
:10567C0000021343A3816065F8E7C046FFEFFFFF0C
:10568C0010B50E23C95E00F013F810BD70B5040000
:10569C00080011001A000023044D2B60FEF770FB6C
:1056AC00431C02D12B6803B1236070BDC8100020CD
:1056BC00002370B5054D040008002B60FEF77DFB40
:1056CC00431C02D12B6803B1236070BDC8100020AD
:1056DC00002370B5064D0400080011002B60FEF786
:1056EC0076FB431C02D12B6803B1236070BDC0460E
:1056FC00C8100020002370B5054D040008002B6075
:10570C00FEF773FB431C02D12B6803B1236070BD01
:10571C00C810002070B50400080011001A00002306
:10572C00044D2B60FEF76AFB431C02D12B6803B1BE
:10573C00236070BDC8100020C9B28218904201D1FC
:10574C000020704703788B42FBD00130F6E7000055
:10575C0010B50248FFF711FB10BDC046D010002059
:10576C0010B50248FFF70AFB10BDC046D010002050
:10577C0070B50400080011001A000023044D2B60C2
:10578C00FEF747FB431C02D12B6803B1236070BDAD
:10579C00C8100020F8B5C046F8BC08BC9E4670473F
:0C57AC00F8B5C046F8BC08BC9E4670472B
:1057B8006D63752077616B6575703A2025642C20C0
:1057C8006368616E676520626175647261746520E3
:1057D800746F20393231363030210A0031313A3293
:1057E800353A3330000000004D61792031392032DC
:1057F800303236004669726D77617265206275696C
:105808006C74206F6E3A202573202573210A0000DE
:105818007561727420737461743A307825780A005F
:10582800312073656E6420307837652100000000F0
:105838003220726563656976652030783535216771
:105848006C6F62616C5F73696F5F68616E646C65D1
:105858002E6275665F73697A653A307825782C20F0
:10586800676C6F62616C5F73696F5F68616E646CAF
:10587800652E646174615F73697A653A307825785A
:105888000A0000007761697420666F7220736F6385
:1058980020726F6D636F6465207561727420656E28
:1058A800756D00006D63752077616B657570207389
:1058B800756363657373000053504C5F5452414ED7
:1058C80053504F52545F54494D454F55542C2072F4
:1058D8006573657420736F6300000000726F6D63F9
:1058E8006F646520656E756D2074696D656F75747C
:1058F8002C206D637520726561647920746F206552
:105908006E7465722064656570736C6565700000FF
:1059180074696D6572207469636B20726573657450
:1059280000000000676C6F62616C5F73696F5F688D
:10593800616E646C652E73696F5F73746174653A28
:10594800307825780A000000676C6F62616C5F73BD
:10595800696F5F68616E646C652E706B745F7374D9
:105968006174653A307825780A000000676C6F62C8
:10597800616C5F73696F5F68616E646C652E6461EA
:1059880074615F73697A653A307825780A00000097
:10599800676C6F62616C5F73696F5F68616E646C7E
:1059A800652E726561645F707472206275660000AE
:1059B80064756D7020307825782062797465730A73
:1059C8000000000025303278200000007370695F05
:1059D8006E616E645F69643A2030782530327825CC
:1059E8003032782530327825303278253032780ACE
:1059F800000000006E6F206964206D617463682C7C
:105A08002075736520636F6D6D6F6E206E616E64B7
:105A1800206472697665722C2070672073697A65D4
:105A28002025642C2070675F7065725F626C6B2044
:105A3800256421210A0000006E616E6420696420DB
:105A48006973203021210000656E7465722025730A
:105A58000A000000657869742025730A00000000B8
:105A68006B65795F6C6F6E675F70726573735F6487
:105A7800657465637465643A25642C206B65795F89
:105A880073686F745F70726573735F646574656360
:105A98007465643A25640A00534C383536334D43EF
:105AA800555F5731392E33392E3120666D635F6566
:105AB800726173655F616E645F70726F6772616D4A
:105AC8002025640A00000000737461727420746FEA
